{"abi":[{"type":"function","name":"getOptedInProposers","inputs":[],"outputs":[{"name":"","type":"address[]","internalType":"address[]"}],"stateMutability":"view"},{"type":"function","name":"isOptedIn","inputs":[{"name":"_proposer","type":"address","internalType":"address"}],"outputs":[{"name":"","type":"bool","internalType":"bool"}],"stateMutability":"view"},{"type":"function","name":"optIn","inputs":[],"outputs":[],"stateMutability":"nonpayable"},{"type":"function","name":"optOut","inputs":[],"outputs":[],"stateMutability":"nonpayable"},{"type":"event","name":"ProposerOptedIn","inputs":[{"name":"proposer","type":"address","indexed":false,"internalType":"address"}],"anonymous":false},{"type":"event","name":"ProposerOptedOut","inputs":[{"name":"proposer","type":"address","indexed":false,"internalType":"address"}],"anonymous":false}],"bytecode":{"object":"0x6080604052348015600f57600080fd5b506106128061001f6000396000f3fe608060405234801561001057600080fd5b506004361061004c5760003560e01c80635b48684e1461005157806390deb0bd1461005b578063d4eec5a614610079578063e49c039a14610081575b600080fd5b6100596100ca565b005b61006361020c565b60405161007091906104d0565b60405180910390f35b61005961027b565b6100ba61008f36600461052a565b73ffffffffffffffffffffffffffffffffffffffff1660009081526020819052604090205460ff1690565b6040519015158152602001610070565b3360009081526020819052604090205460ff1615610149576040517f08c379a000000000000000000000000000000000000000000000000000000000815260206004820152601060248201527f416c7265616479206f7074656420696e0000000000000000000000000000000060448201526064015b60405180910390fd5b3360008181526020818152604080832080547fffffffffffffffffffffffffffffffffffffffffffffffffffffffffffffff001660019081179091558054808201825593527fb10e2d527612073b26eecdfd717e6a320cf44b4afac2b0732d9fcbe2b7fa0cf690920180547fffffffffffffffffffffffff0000000000000000000000000000000000000000168417905590519182527f6da265bf107e302646446454ded50d62320c7c9794d40f42efc4ffabfddc5039910160405180910390a1565b6060600180548060200260200160405190810160405280929190818152602001828054801561027157602002820191906000526020600020905b815473ffffffffffffffffffffffffffffffffffffffff168152600190910190602001808311610246575b5050505050905090565b3360009081526020819052604090205460ff166102f4576040517f08c379a000000000000000000000000000000000000000000000000000000000815260206004820152600c60248201527f4e6f74206f7074656420696e00000000000000000000000000000000000000006044820152606401610140565b336000818152602081815260409182902080547fffffffffffffffffffffffffffffffffffffffffffffffffffffffffffffff0016905590519182527fe34a78d7df18839dcb5a21b9ebc1321c3f61185c2aa5099bf2b402787460c82d910160405180910390a160005b6001548110156104cd573373ffffffffffffffffffffffffffffffffffffffff166001828154811061039257610392610567565b60009182526020909120015473ffffffffffffffffffffffffffffffffffffffff16036104c557600180546103c8908290610596565b815481106103d8576103d8610567565b6000918252602090912001546001805473ffffffffffffffffffffffffffffffffffffffff909216918390811061041157610411610567565b9060005260206000200160006101000a81548173ffffffffffffffffffffffffffffffffffffffff021916908373ffffffffffffffffffffffffffffffffffffffff160217905550600180548061046a5761046a6105d6565b60008281526020902081017fffffffffffffffffffffffffffffffffffffffffffffffffffffffffffffffff90810180547fffffffffffffffffffffffff000000000000000000000000000000000000000016905501905550565b60010161035e565b50565b6020808252825182820181905260009190848201906040850190845b8181101561051e57835173ffffffffffffffffffffffffffffffffffffffff16835292840192918401916001016104ec565b50909695505050505050565b60006020828403121561053c57600080fd5b813573ffffffffffffffffffffffffffffffffffffffff8116811461056057600080fd5b9392505050565b7f4e487b7100000000000000000000000000000000000000000000000000000000600052603260045260246000fd5b818103818111156105d0577f4e487b7100000000000000000000000000000000000000000000000000000000600052601160045260246000fd5b92915050565b7f4e487b7100000000000000000000000000000000000000000000000000000000600052603160045260246000fdfea164736f6c6343000819000a","linkReferences":{}},"methodIdentifiers":{"getOptedInProposers()":"90deb0bd","isOptedIn(address)":"e49c039a","optIn()":"5b48684e","optOut()":"d4eec5a6"},"id":40}