{
    "abi": [
        {
            "type": "constructor",
            "inputs": [
                {
                    "name": "_lubanCore",
                    "type": "address",
                    "internalType": "address"
                }
            ],
            "stateMutability": "nonpayable"
        },
        {
            "type": "receive",
            "stateMutability": "payable"
        },
        {
            "type": "function",
            "name": "LOCK_PERIOD",
            "inputs": [],
            "outputs": [
                {
                    "name": "",
                    "type": "uint256",
                    "internalType": "uint256"
                }
            ],
            "stateMutability": "view"
        },
        {
            "type": "function",
            "name": "balanceOf",
            "inputs": [
                {
                    "name": "user",
                    "type": "address",
                    "internalType": "address"
                }
            ],
            "outputs": [
                {
                    "name": "",
                    "type": "uint256",
                    "internalType": "uint256"
                }
            ],
            "stateMutability": "view"
        },
        {
            "type": "function",
            "name": "balances",
            "inputs": [
                {
                    "name": "",
                    "type": "address",
                    "internalType": "address"
                }
            ],
            "outputs": [
                {
                    "name": "",
                    "type": "uint256",
                    "internalType": "uint256"
                }
            ],
            "stateMutability": "view"
        },
        {
            "type": "function",
            "name": "deposit",
            "inputs": [],
            "outputs": [],
            "stateMutability": "payable"
        },
        {
            "type": "function",
            "name": "lockBlock",
            "inputs": [
                {
                    "name": "",
                    "type": "address",
                    "internalType": "address"
                }
            ],
            "outputs": [
                {
                    "name": "",
                    "type": "uint256",
                    "internalType": "uint256"
                }
            ],
            "stateMutability": "view"
        },
        {
            "type": "function",
            "name": "lockBlockOf",
            "inputs": [
                {
                    "name": "user",
                    "type": "address",
                    "internalType": "address"
                }
            ],
            "outputs": [
                {
                    "name": "",
                    "type": "uint256",
                    "internalType": "uint256"
                }
            ],
            "stateMutability": "view"
        },
        {
            "type": "function",
            "name": "lubanCore",
            "inputs": [],
            "outputs": [
                {
                    "name": "",
                    "type": "address",
                    "internalType": "contract ILubanCore"
                }
            ],
            "stateMutability": "view"
        },
        {
            "type": "function",
            "name": "lubanCoreAddr",
            "inputs": [],
            "outputs": [
                {
                    "name": "",
                    "type": "address",
                    "internalType": "address"
                }
            ],
            "stateMutability": "view"
        },
        {
            "type": "function",
            "name": "maxUint256",
            "inputs": [],
            "outputs": [
                {
                    "name": "",
                    "type": "uint256",
                    "internalType": "uint256"
                }
            ],
            "stateMutability": "view"
        },
        {
            "type": "function",
            "name": "nonce",
            "inputs": [
                {
                    "name": "",
                    "type": "address",
                    "internalType": "address"
                }
            ],
            "outputs": [
                {
                    "name": "",
                    "type": "uint256",
                    "internalType": "uint256"
                }
            ],
            "stateMutability": "view"
        },
        {
            "type": "function",
            "name": "payout",
            "inputs": [
                {
                    "name": "tipTx",
                    "type": "tuple",
                    "internalType": "struct ILubanCore.TipTx",
                    "components": [
                        {
                            "name": "gasLimit",
                            "type": "uint256",
                            "internalType": "uint256"
                        },
                        {
                            "name": "from",
                            "type": "address",
                            "internalType": "address"
                        },
                        {
                            "name": "to",
                            "type": "address",
                            "internalType": "address"
                        },
                        {
                            "name": "prePay",
                            "type": "uint256",
                            "internalType": "uint256"
                        },
                        {
                            "name": "afterPay",
                            "type": "uint256",
                            "internalType": "uint256"
                        },
                        {
                            "name": "nonce",
                            "type": "uint256",
                            "internalType": "uint256"
                        }
                    ]
                },
                {
                    "name": "signature",
                    "type": "bytes",
                    "internalType": "bytes"
                },
                {
                    "name": "isAfterExec",
                    "type": "bool",
                    "internalType": "bool"
                },
                {
                    "name": "preconfSig",
                    "type": "bytes",
                    "internalType": "bytes"
                }
            ],
            "outputs": [],
            "stateMutability": "nonpayable"
        },
        {
            "type": "function",
            "name": "requestWithdraw",
            "inputs": [
                {
                    "name": "amount",
                    "type": "uint256",
                    "internalType": "uint256"
                }
            ],
            "outputs": [],
            "stateMutability": "nonpayable"
        },
        {
            "type": "function",
            "name": "withdraw",
            "inputs": [
                {
                    "name": "amount",
                    "type": "uint256",
                    "internalType": "uint256"
                }
            ],
            "outputs": [],
            "stateMutability": "nonpayable"
        },
        {
            "type": "event",
            "name": "Deposited",
            "inputs": [
                {
                    "name": "user",
                    "type": "address",
                    "indexed": true,
                    "internalType": "address"
                },
                {
                    "name": "amount",
                    "type": "uint256",
                    "indexed": false,
                    "internalType": "uint256"
                }
            ],
            "anonymous": false
        },
        {
            "type": "event",
            "name": "PaymentMade",
            "inputs": [
                {
                    "name": "from",
                    "type": "address",
                    "indexed": true,
                    "internalType": "address"
                },
                {
                    "name": "amount",
                    "type": "uint256",
                    "indexed": false,
                    "internalType": "uint256"
                },
                {
                    "name": "isAfterExec",
                    "type": "bool",
                    "indexed": false,
                    "internalType": "bool"
                }
            ],
            "anonymous": false
        },
        {
            "type": "event",
            "name": "RequestedWithdraw",
            "inputs": [
                {
                    "name": "user",
                    "type": "address",
                    "indexed": true,
                    "internalType": "address"
                },
                {
                    "name": "amount",
                    "type": "uint256",
                    "indexed": false,
                    "internalType": "uint256"
                }
            ],
            "anonymous": false
        },
        {
            "type": "event",
            "name": "Withdrawn",
            "inputs": [
                {
                    "name": "user",
                    "type": "address",
                    "indexed": true,
                    "internalType": "address"
                },
                {
                    "name": "amount",
                    "type": "uint256",
                    "indexed": false,
                    "internalType": "uint256"
                }
            ],
            "anonymous": false
        },
        {
            "type": "error",
            "name": "ECDSAInvalidSignature",
            "inputs": []
        },
        {
            "type": "error",
            "name": "ECDSAInvalidSignatureLength",
            "inputs": [
                {
                    "name": "length",
                    "type": "uint256",
                    "internalType": "uint256"
                }
            ]
        },
        {
            "type": "error",
            "name": "ECDSAInvalidSignatureS",
            "inputs": [
                {
                    "name": "s",
                    "type": "bytes32",
                    "internalType": "bytes32"
                }
            ]
        },
        {
            "type": "error",
            "name": "ReentrancyGuardReentrantCall",
            "inputs": []
        }
    ],
    "bytecode": {
        "object": "0x608060405260001960065534801561001657600080fd5b506040516113c53803806113c5833981016040819052610035916100c3565b60016000556001600160a01b0381166100945760405162461bcd60e51b815260206004820181905260248201527f4c7562616e436f726520616464726573732063616e6e6f74206265207a65726f604482015260640160405180910390fd5b600580546001600160a01b039092166001600160a01b03199283168117909155600180549092161790556100f3565b6000602082840312156100d557600080fd5b81516001600160a01b03811681146100ec57600080fd5b9392505050565b6112c3806101026000396000f3fe6080604052600436106100d65760003560e01c8063745400c91161007f578063b6dae30a11610059578063b6dae30a1461028e578063b7d03797146102d1578063b9330829146102fe578063d0e30db01461031457600080fd5b8063745400c9146102215780639e67ec5d14610241578063a5bea5391461026e57600080fd5b80632e1a7d4d116100b05780632e1a7d4d1461019157806370a08231146101b157806370ae92d2146101f457600080fd5b80630f308979146100ea5780631820cabb1461014157806327e235e31461016457600080fd5b366100e5576100e3610318565b005b600080fd5b3480156100f657600080fd5b506001546101179073ffffffffffffffffffffffffffffffffffffffff1681565b60405173ffffffffffffffffffffffffffffffffffffffff90911681526020015b60405180910390f35b34801561014d57600080fd5b50610156604081565b604051908152602001610138565b34801561017057600080fd5b5061015661017f366004610fde565b60026020526000908152604090205481565b34801561019d57600080fd5b506100e36101ac366004611000565b610424565b3480156101bd57600080fd5b506101566101cc366004610fde565b73ffffffffffffffffffffffffffffffffffffffff1660009081526002602052604090205490565b34801561020057600080fd5b5061015661020f366004610fde565b60046020526000908152604090205481565b34801561022d57600080fd5b506100e361023c366004611000565b61067c565b34801561024d57600080fd5b506005546101179073ffffffffffffffffffffffffffffffffffffffff1681565b34801561027a57600080fd5b506100e3610289366004611062565b61076a565b34801561029a57600080fd5b506101566102a9366004610fde565b73ffffffffffffffffffffffffffffffffffffffff1660009081526003602052604090205490565b3480156102dd57600080fd5b506101566102ec366004610fde565b60036020526000908152604090205481565b34801561030a57600080fd5b5061015660065481565b6100e35b600034116103ad576040517f08c379a000000000000000000000000000000000000000000000000000000000815260206004820152602860248201527f4465706f73697420616d6f756e74206d7573742062652067726561746572207460448201527f68616e207a65726f00000000000000000000000000000000000000000000000060648201526084015b60405180910390fd5b33600090815260026020526040812080543492906103cc908490611135565b909155505060065433600081815260036020526040908190209290925590517f2da466a7b24304f47e87fa2e1e5a81b9831ce54fec19055ce277ca2f39ba42c49061041a9034815260200190565b60405180910390a2565b61042c610cad565b336000908152600260205260409020548111156104a5576040517f08c379a000000000000000000000000000000000000000000000000000000000815260206004820152601460248201527f496e73756666696369656e742062616c616e636500000000000000000000000060448201526064016103a4565b60065433600090815260036020526040902054148015906104e157503360009081526003602052604090819020546104dd9190611135565b4310155b610547576040517f08c379a000000000000000000000000000000000000000000000000000000000815260206004820152601460248201527f5769746864726177616c206973206c6f636b656400000000000000000000000060448201526064016103a4565b3360009081526002602052604081208054839290610566908490611148565b9091555050604051600090339083908381818185875af1925050503d80600081146105ad576040519150601f19603f3d011682016040523d82523d6000602084013e6105b2565b606091505b505090508061061d576040517f08c379a000000000000000000000000000000000000000000000000000000000815260206004820152601460248201527f4661696c656420746f2073656e6420457468657200000000000000000000000060448201526064016103a4565b60065433600081815260036020526040908190209290925590517f7084f5476618d8e60b11ef0d7d3f06914655adb8793e28ff7f018d4c76d505d5906106669085815260200190565b60405180910390a2506106796001600055565b50565b3360009081526002602052604090205481111561071b576040517f08c379a000000000000000000000000000000000000000000000000000000000815260206004820152602860248201527f496e73756666696369656e742062616c616e636520746f20726571756573742060448201527f776974686472617700000000000000000000000000000000000000000000000060648201526084016103a4565b3360008181526003602052604090819020439055517f7a20b0fa4183ed600fe1a67a078e6ba00e5992b52d176df6d13dc2936acc290d9061075f9084815260200190565b60405180910390a250565b610772610cad565b60055473ffffffffffffffffffffffffffffffffffffffff163314610819576040517f08c379a000000000000000000000000000000000000000000000000000000000815260206004820152602760248201527f4f6e6c79204c7562616e436f72652063616e20696e697469617465207468697360448201527f207061796f75740000000000000000000000000000000000000000000000000060648201526084016103a4565b6001546040517fcf23029700000000000000000000000000000000000000000000000000000000815260009173ffffffffffffffffffffffffffffffffffffffff169063cf23029790610870908a9060040161115b565b602060405180830381865afa15801561088d573d6000803e3d6000fd5b505050506040513d601f19601f820116820180604052508101906108b191906111c5565b90506108c36040880160208901610fde565b73ffffffffffffffffffffffffffffffffffffffff166108e4828888610cf0565b73ffffffffffffffffffffffffffffffffffffffff1614610961576040517f08c379a000000000000000000000000000000000000000000000000000000000815260206004820152601160248201527f496e76616c6964207369676e617475726500000000000000000000000000000060448201526064016103a4565b600084610972578760600135610984565b610984608089013560608a0135611135565b9050806002600061099b60408c0160208d01610fde565b73ffffffffffffffffffffffffffffffffffffffff1673ffffffffffffffffffffffffffffffffffffffff168152602001908152602001600020541015610a3e576040517f08c379a000000000000000000000000000000000000000000000000000000000815260206004820152601460248201527f496e73756666696369656e742062616c616e636500000000000000000000000060448201526064016103a4565b60046000610a5260408b0160208c01610fde565b73ffffffffffffffffffffffffffffffffffffffff1673ffffffffffffffffffffffffffffffffffffffff168152602001908152602001600020548860a0013514610af9576040517f08c379a000000000000000000000000000000000000000000000000000000000815260206004820152601360248201527f496e636f727265637420746970206e6f6e63650000000000000000000000000060448201526064016103a4565b60046000610b0d60408b0160208c01610fde565b73ffffffffffffffffffffffffffffffffffffffff16815260208101919091526040016000908120805491610b41836111de565b9091555081905060026000610b5c60408c0160208d01610fde565b73ffffffffffffffffffffffffffffffffffffffff1673ffffffffffffffffffffffffffffffffffffffff1681526020019081526020016000206000828254610ba59190611148565b909155505060015473ffffffffffffffffffffffffffffffffffffffff16634e8a0acb8280610bda60608d0160408e01610fde565b88886040518663ffffffff1660e01b8152600401610bfb9493929190611216565b6000604051808303818588803b158015610c1457600080fd5b505af1158015610c28573d6000803e3d6000fd5b50610c3f93505060408b0191505060208a01610fde565b73ffffffffffffffffffffffffffffffffffffffff167f729659476ddfdbe82b4e16c19895d9f939f33a114b5c9f17b679b06daf7393fc8287604051610c919291909182521515602082015260400190565b60405180910390a25050610ca56001600055565b505050505050565b600260005403610ce9576040517f3ee5aeb500000000000000000000000000000000000000000000000000000000815260040160405180910390fd5b6002600055565b6000610d328484848080601f016020809104026020016040519081016040528093929190818152602001838380828437600092019190915250610d3a92505050565b949350505050565b600080600080610d4a8686610d66565b925092509250610d5a8282610db3565b50909150505b92915050565b60008060008351604103610da05760208401516040850151606086015160001a610d9288828585610ebb565b955095509550505050610dac565b50508151600091506002905b9250925092565b6000826003811115610dc757610dc7611287565b03610dd0575050565b6001826003811115610de457610de4611287565b03610e1b576040517ff645eedf00000000000000000000000000000000000000000000000000000000815260040160405180910390fd5b6002826003811115610e2f57610e2f611287565b03610e69576040517ffce698f7000000000000000000000000000000000000000000000000000000008152600481018290526024016103a4565b6003826003811115610e7d57610e7d611287565b03610eb7576040517fd78bce0c000000000000000000000000000000000000000000000000000000008152600481018290526024016103a4565b5050565b600080807f7fffffffffffffffffffffffffffffff5d576e7357a4501ddfe92f46681b20a0841115610ef65750600091506003905082610fab565b604080516000808252602082018084528a905260ff891692820192909252606081018790526080810186905260019060a0016020604051602081039080840390855afa158015610f4a573d6000803e3d6000fd5b50506040517fffffffffffffffffffffffffffffffffffffffffffffffffffffffffffffffe0015191505073ffffffffffffffffffffffffffffffffffffffff8116610fa157506000925060019150829050610fab565b9250600091508190505b9450945094915050565b803573ffffffffffffffffffffffffffffffffffffffff81168114610fd957600080fd5b919050565b600060208284031215610ff057600080fd5b610ff982610fb5565b9392505050565b60006020828403121561101257600080fd5b5035919050565b60008083601f84011261102b57600080fd5b50813567ffffffffffffffff81111561104357600080fd5b60208301915083602082850101111561105b57600080fd5b9250929050565b60008060008060008086880361012081121561107d57600080fd5b60c081121561108b57600080fd5b5086955060c087013567ffffffffffffffff808211156110aa57600080fd5b6110b68a838b01611019565b909750955060e0890135915081151582146110d057600080fd5b90935061010088013590808211156110e757600080fd5b506110f489828a01611019565b979a9699509497509295939492505050565b7f4e487b7100000000000000000000000000000000000000000000000000000000600052601160045260246000fd5b80820180821115610d6057610d60611106565b81810381811115610d6057610d60611106565b8135815260c0810161116f60208401610fb5565b73ffffffffffffffffffffffffffffffffffffffff80821660208501528061119960408701610fb5565b1660408501525050606083013560608301526080830135608083015260a083013560a083015292915050565b6000602082840312156111d757600080fd5b5051919050565b60007fffffffffffffffffffffffffffffffffffffffffffffffffffffffffffffffff820361120f5761120f611106565b5060010190565b84815273ffffffffffffffffffffffffffffffffffffffff8416602082015260606040820152816060820152818360808301376000818301608090810191909152601f9092017fffffffffffffffffffffffffffffffffffffffffffffffffffffffffffffffe01601019392505050565b7f4e487b7100000000000000000000000000000000000000000000000000000000600052602160045260246000fdfea164736f6c6343000819000a",
        "linkReferences": {}
    },
    "methodIdentifiers": {
        "LOCK_PERIOD()": "1820cabb",
        "balanceOf(address)": "70a08231",
        "balances(address)": "27e235e3",
        "deposit()": "d0e30db0",
        "lockBlock(address)": "b7d03797",
        "lockBlockOf(address)": "b6dae30a",
        "lubanCore()": "0f308979",
        "lubanCoreAddr()": "9e67ec5d",
        "maxUint256()": "b9330829",
        "nonce(address)": "70ae92d2",
        "payout((uint256,address,address,uint256,uint256,uint256),bytes,bool,bytes)": "a5bea539",
        "requestWithdraw(uint256)": "745400c9",
        "withdraw(uint256)": "2e1a7d4d"
    },
    "id": 52
}