{
    "abi": [
        {
            "type": "constructor",
            "inputs": [
                {
                    "name": "_owner",
                    "type": "address",
                    "internalType": "address"
                },
                {
                    "name": "_axiomV2QueryAddress",
                    "type": "address",
                    "internalType": "address"
                },
                {
                    "name": "_querySchema",
                    "type": "bytes32",
                    "internalType": "bytes32"
                }
            ],
            "stateMutability": "nonpayable"
        },
        {
            "type": "receive",
            "stateMutability": "payable"
        },
        {
            "type": "function",
            "name": "DOMAIN_SEPARATOR",
            "inputs": [],
            "outputs": [
                {
                    "name": "",
                    "type": "bytes32",
                    "internalType": "bytes32"
                }
            ],
            "stateMutability": "view"
        },
        {
            "type": "function",
            "name": "collectTip",
            "inputs": [
                {
                    "name": "preconfer",
                    "type": "address",
                    "internalType": "address"
                },
                {
                    "name": "preconferSignature",
                    "type": "bytes32",
                    "internalType": "bytes32"
                }
            ],
            "outputs": [],
            "stateMutability": "nonpayable"
        },
        {
            "type": "function",
            "name": "exhaust",
            "inputs": [
                {
                    "name": "tipTx",
                    "type": "tuple",
                    "internalType": "struct ILubanCore.TipTx",
                    "components": [
                        {
                            "name": "gasLimit",
                            "type": "uint256",
                            "internalType": "uint256"
                        },
                        {
                            "name": "from",
                            "type": "address",
                            "internalType": "address"
                        },
                        {
                            "name": "to",
                            "type": "address",
                            "internalType": "address"
                        },
                        {
                            "name": "prePay",
                            "type": "uint256",
                            "internalType": "uint256"
                        },
                        {
                            "name": "afterPay",
                            "type": "uint256",
                            "internalType": "uint256"
                        },
                        {
                            "name": "nonce",
                            "type": "uint256",
                            "internalType": "uint256"
                        }
                    ]
                },
                {
                    "name": "userSignature",
                    "type": "bytes",
                    "internalType": "bytes"
                },
                {
                    "name": "preconferSignature",
                    "type": "bytes",
                    "internalType": "bytes"
                }
            ],
            "outputs": [],
            "stateMutability": "nonpayable"
        },
        {
            "type": "function",
            "name": "gasBurner",
            "inputs": [
                {
                    "name": "gasLimit",
                    "type": "uint256",
                    "internalType": "uint256"
                }
            ],
            "outputs": [
                {
                    "name": "",
                    "type": "uint256",
                    "internalType": "uint256"
                }
            ],
            "stateMutability": "view"
        },
        {
            "type": "function",
            "name": "getLubanEscrow",
            "inputs": [],
            "outputs": [
                {
                    "name": "",
                    "type": "address",
                    "internalType": "contract LubanEscrow"
                }
            ],
            "stateMutability": "view"
        },
        {
            "type": "function",
            "name": "getPreconfConditionsHash",
            "inputs": [
                {
                    "name": "preconfConditions",
                    "type": "tuple",
                    "internalType": "struct ILubanCore.PreconfConditions",
                    "components": [
                        {
                            "name": "inclusionMetaData",
                            "type": "tuple",
                            "internalType": "struct ILubanCore.InclusionMeta",
                            "components": [
                                {
                                    "name": "startingBlockNumber",
                                    "type": "uint256",
                                    "internalType": "uint256"
                                }
                            ]
                        },
                        {
                            "name": "orderingMetaData",
                            "type": "tuple",
                            "internalType": "struct ILubanCore.OrderingMeta",
                            "components": [
                                {
                                    "name": "txCount",
                                    "type": "uint256",
                                    "internalType": "uint256"
                                },
                                {
                                    "name": "index",
                                    "type": "uint256",
                                    "internalType": "uint256"
                                }
                            ]
                        },
                        {
                            "name": "blockNumber",
                            "type": "uint256",
                            "internalType": "uint256"
                        }
                    ]
                }
            ],
            "outputs": [
                {
                    "name": "",
                    "type": "bytes32",
                    "internalType": "bytes32"
                }
            ],
            "stateMutability": "view"
        },
        {
            "type": "function",
            "name": "getPreconfRequestHash",
            "inputs": [
                {
                    "name": "preconfReq",
                    "type": "tuple",
                    "internalType": "struct ILubanCore.PreconfRequest",
                    "components": [
                        {
                            "name": "tipTx",
                            "type": "tuple",
                            "internalType": "struct ILubanCore.TipTx",
                            "components": [
                                {
                                    "name": "gasLimit",
                                    "type": "uint256",
                                    "internalType": "uint256"
                                },
                                {
                                    "name": "from",
                                    "type": "address",
                                    "internalType": "address"
                                },
                                {
                                    "name": "to",
                                    "type": "address",
                                    "internalType": "address"
                                },
                                {
                                    "name": "prePay",
                                    "type": "uint256",
                                    "internalType": "uint256"
                                },
                                {
                                    "name": "afterPay",
                                    "type": "uint256",
                                    "internalType": "uint256"
                                },
                                {
                                    "name": "nonce",
                                    "type": "uint256",
                                    "internalType": "uint256"
                                }
                            ]
                        },
                        {
                            "name": "prefConditions",
                            "type": "tuple",
                            "internalType": "struct ILubanCore.PreconfConditions",
                            "components": [
                                {
                                    "name": "inclusionMetaData",
                                    "type": "tuple",
                                    "internalType": "struct ILubanCore.InclusionMeta",
                                    "components": [
                                        {
                                            "name": "startingBlockNumber",
                                            "type": "uint256",
                                            "internalType": "uint256"
                                        }
                                    ]
                                },
                                {
                                    "name": "orderingMetaData",
                                    "type": "tuple",
                                    "internalType": "struct ILubanCore.OrderingMeta",
                                    "components": [
                                        {
                                            "name": "txCount",
                                            "type": "uint256",
                                            "internalType": "uint256"
                                        },
                                        {
                                            "name": "index",
                                            "type": "uint256",
                                            "internalType": "uint256"
                                        }
                                    ]
                                },
                                {
                                    "name": "blockNumber",
                                    "type": "uint256",
                                    "internalType": "uint256"
                                }
                            ]
                        },
                        {
                            "name": "preconfTx",
                            "type": "tuple",
                            "internalType": "struct ILubanCore.PreconfTx",
                            "components": [
                                {
                                    "name": "to",
                                    "type": "address",
                                    "internalType": "address"
                                },
                                {
                                    "name": "value",
                                    "type": "uint256",
                                    "internalType": "uint256"
                                },
                                {
                                    "name": "callData",
                                    "type": "bytes",
                                    "internalType": "bytes"
                                },
                                {
                                    "name": "ethTransfer",
                                    "type": "bool",
                                    "internalType": "bool"
                                }
                            ]
                        },
                        {
                            "name": "tipTxSignature",
                            "type": "bytes",
                            "internalType": "bytes"
                        },
                        {
                            "name": "initSignature",
                            "type": "bytes",
                            "internalType": "bytes"
                        },
                        {
                            "name": "preconferSignature",
                            "type": "bytes",
                            "internalType": "bytes"
                        }
                    ]
                }
            ],
            "outputs": [
                {
                    "name": "",
                    "type": "bytes32",
                    "internalType": "bytes32"
                }
            ],
            "stateMutability": "view"
        },
        {
            "type": "function",
            "name": "getPreconfRequestStatus",
            "inputs": [
                {
                    "name": "preconferSignature",
                    "type": "bytes32",
                    "internalType": "bytes32"
                }
            ],
            "outputs": [
                {
                    "name": "",
                    "type": "uint8",
                    "internalType": "enum ILubanCore.PreconfRequestStatus"
                }
            ],
            "stateMutability": "view"
        },
        {
            "type": "function",
            "name": "getPreconferBalance",
            "inputs": [
                {
                    "name": "preconfer",
                    "type": "address",
                    "internalType": "address"
                },
                {
                    "name": "preconferSig",
                    "type": "bytes",
                    "internalType": "bytes"
                }
            ],
            "outputs": [
                {
                    "name": "",
                    "type": "uint256",
                    "internalType": "uint256"
                }
            ],
            "stateMutability": "view"
        },
        {
            "type": "function",
            "name": "getTipTxAndPreconfConditionsHash",
            "inputs": [
                {
                    "name": "tipTx",
                    "type": "tuple",
                    "internalType": "struct ILubanCore.TipTx",
                    "components": [
                        {
                            "name": "gasLimit",
                            "type": "uint256",
                            "internalType": "uint256"
                        },
                        {
                            "name": "from",
                            "type": "address",
                            "internalType": "address"
                        },
                        {
                            "name": "to",
                            "type": "address",
                            "internalType": "address"
                        },
                        {
                            "name": "prePay",
                            "type": "uint256",
                            "internalType": "uint256"
                        },
                        {
                            "name": "afterPay",
                            "type": "uint256",
                            "internalType": "uint256"
                        },
                        {
                            "name": "nonce",
                            "type": "uint256",
                            "internalType": "uint256"
                        }
                    ]
                },
                {
                    "name": "preconfConditions",
                    "type": "tuple",
                    "internalType": "struct ILubanCore.PreconfConditions",
                    "components": [
                        {
                            "name": "inclusionMetaData",
                            "type": "tuple",
                            "internalType": "struct ILubanCore.InclusionMeta",
                            "components": [
                                {
                                    "name": "startingBlockNumber",
                                    "type": "uint256",
                                    "internalType": "uint256"
                                }
                            ]
                        },
                        {
                            "name": "orderingMetaData",
                            "type": "tuple",
                            "internalType": "struct ILubanCore.OrderingMeta",
                            "components": [
                                {
                                    "name": "txCount",
                                    "type": "uint256",
                                    "internalType": "uint256"
                                },
                                {
                                    "name": "index",
                                    "type": "uint256",
                                    "internalType": "uint256"
                                }
                            ]
                        },
                        {
                            "name": "blockNumber",
                            "type": "uint256",
                            "internalType": "uint256"
                        }
                    ]
                }
            ],
            "outputs": [
                {
                    "name": "",
                    "type": "bytes32",
                    "internalType": "bytes32"
                }
            ],
            "stateMutability": "view"
        },
        {
            "type": "function",
            "name": "getTipTxHash",
            "inputs": [
                {
                    "name": "tipTx",
                    "type": "tuple",
                    "internalType": "struct ILubanCore.TipTx",
                    "components": [
                        {
                            "name": "gasLimit",
                            "type": "uint256",
                            "internalType": "uint256"
                        },
                        {
                            "name": "from",
                            "type": "address",
                            "internalType": "address"
                        },
                        {
                            "name": "to",
                            "type": "address",
                            "internalType": "address"
                        },
                        {
                            "name": "prePay",
                            "type": "uint256",
                            "internalType": "uint256"
                        },
                        {
                            "name": "afterPay",
                            "type": "uint256",
                            "internalType": "uint256"
                        },
                        {
                            "name": "nonce",
                            "type": "uint256",
                            "internalType": "uint256"
                        }
                    ]
                }
            ],
            "outputs": [
                {
                    "name": "",
                    "type": "bytes32",
                    "internalType": "bytes32"
                }
            ],
            "stateMutability": "view"
        },
        {
            "type": "function",
            "name": "handlePayment",
            "inputs": [
                {
                    "name": "amount",
                    "type": "uint256",
                    "internalType": "uint256"
                },
                {
                    "name": "preconferAddr",
                    "type": "address",
                    "internalType": "address"
                },
                {
                    "name": "preconferSig",
                    "type": "bytes",
                    "internalType": "bytes"
                }
            ],
            "outputs": [],
            "stateMutability": "payable"
        },
        {
            "type": "function",
            "name": "lubanChallengeManager",
            "inputs": [],
            "outputs": [
                {
                    "name": "",
                    "type": "address",
                    "internalType": "contract LubanChallengeManager"
                }
            ],
            "stateMutability": "view"
        },
        {
            "type": "function",
            "name": "lubanEscrow",
            "inputs": [],
            "outputs": [
                {
                    "name": "",
                    "type": "address",
                    "internalType": "contract LubanEscrow"
                }
            ],
            "stateMutability": "view"
        },
        {
            "type": "function",
            "name": "owner",
            "inputs": [],
            "outputs": [
                {
                    "name": "",
                    "type": "address",
                    "internalType": "address"
                }
            ],
            "stateMutability": "view"
        },
        {
            "type": "function",
            "name": "preconfRequestStatus",
            "inputs": [
                {
                    "name": "",
                    "type": "bytes32",
                    "internalType": "bytes32"
                }
            ],
            "outputs": [
                {
                    "name": "",
                    "type": "uint8",
                    "internalType": "enum ILubanCore.PreconfRequestStatus"
                }
            ],
            "stateMutability": "view"
        },
        {
            "type": "function",
            "name": "preconferList",
            "inputs": [
                {
                    "name": "",
                    "type": "address",
                    "internalType": "address"
                }
            ],
            "outputs": [
                {
                    "name": "",
                    "type": "bool",
                    "internalType": "bool"
                }
            ],
            "stateMutability": "view"
        },
        {
            "type": "function",
            "name": "preconferTips",
            "inputs": [
                {
                    "name": "",
                    "type": "address",
                    "internalType": "address"
                },
                {
                    "name": "",
                    "type": "bytes32",
                    "internalType": "bytes32"
                }
            ],
            "outputs": [
                {
                    "name": "",
                    "type": "uint256",
                    "internalType": "uint256"
                }
            ],
            "stateMutability": "view"
        },
        {
            "type": "function",
            "name": "registerPreconfer",
            "inputs": [
                {
                    "name": "preconfer",
                    "type": "address",
                    "internalType": "address"
                }
            ],
            "outputs": [],
            "stateMutability": "nonpayable"
        },
        {
            "type": "function",
            "name": "settleRequest",
            "inputs": [
                {
                    "name": "preconfReq",
                    "type": "tuple",
                    "internalType": "struct ILubanCore.PreconfRequest",
                    "components": [
                        {
                            "name": "tipTx",
                            "type": "tuple",
                            "internalType": "struct ILubanCore.TipTx",
                            "components": [
                                {
                                    "name": "gasLimit",
                                    "type": "uint256",
                                    "internalType": "uint256"
                                },
                                {
                                    "name": "from",
                                    "type": "address",
                                    "internalType": "address"
                                },
                                {
                                    "name": "to",
                                    "type": "address",
                                    "internalType": "address"
                                },
                                {
                                    "name": "prePay",
                                    "type": "uint256",
                                    "internalType": "uint256"
                                },
                                {
                                    "name": "afterPay",
                                    "type": "uint256",
                                    "internalType": "uint256"
                                },
                                {
                                    "name": "nonce",
                                    "type": "uint256",
                                    "internalType": "uint256"
                                }
                            ]
                        },
                        {
                            "name": "prefConditions",
                            "type": "tuple",
                            "internalType": "struct ILubanCore.PreconfConditions",
                            "components": [
                                {
                                    "name": "inclusionMetaData",
                                    "type": "tuple",
                                    "internalType": "struct ILubanCore.InclusionMeta",
                                    "components": [
                                        {
                                            "name": "startingBlockNumber",
                                            "type": "uint256",
                                            "internalType": "uint256"
                                        }
                                    ]
                                },
                                {
                                    "name": "orderingMetaData",
                                    "type": "tuple",
                                    "internalType": "struct ILubanCore.OrderingMeta",
                                    "components": [
                                        {
                                            "name": "txCount",
                                            "type": "uint256",
                                            "internalType": "uint256"
                                        },
                                        {
                                            "name": "index",
                                            "type": "uint256",
                                            "internalType": "uint256"
                                        }
                                    ]
                                },
                                {
                                    "name": "blockNumber",
                                    "type": "uint256",
                                    "internalType": "uint256"
                                }
                            ]
                        },
                        {
                            "name": "preconfTx",
                            "type": "tuple",
                            "internalType": "struct ILubanCore.PreconfTx",
                            "components": [
                                {
                                    "name": "to",
                                    "type": "address",
                                    "internalType": "address"
                                },
                                {
                                    "name": "value",
                                    "type": "uint256",
                                    "internalType": "uint256"
                                },
                                {
                                    "name": "callData",
                                    "type": "bytes",
                                    "internalType": "bytes"
                                },
                                {
                                    "name": "ethTransfer",
                                    "type": "bool",
                                    "internalType": "bool"
                                }
                            ]
                        },
                        {
                            "name": "tipTxSignature",
                            "type": "bytes",
                            "internalType": "bytes"
                        },
                        {
                            "name": "initSignature",
                            "type": "bytes",
                            "internalType": "bytes"
                        },
                        {
                            "name": "preconferSignature",
                            "type": "bytes",
                            "internalType": "bytes"
                        }
                    ]
                }
            ],
            "outputs": [],
            "stateMutability": "payable"
        },
        {
            "type": "event",
            "name": "Exhausted",
            "inputs": [
                {
                    "name": "preconfer",
                    "type": "address",
                    "indexed": true,
                    "internalType": "address"
                },
                {
                    "name": "amount",
                    "type": "uint256",
                    "indexed": false,
                    "internalType": "uint256"
                }
            ],
            "anonymous": false
        },
        {
            "type": "event",
            "name": "TipCollected",
            "inputs": [
                {
                    "name": "preconfer",
                    "type": "address",
                    "indexed": true,
                    "internalType": "address"
                },
                {
                    "name": "amount",
                    "type": "uint256",
                    "indexed": false,
                    "internalType": "uint256"
                },
                {
                    "name": "preconferSignature",
                    "type": "bytes32",
                    "indexed": false,
                    "internalType": "bytes32"
                }
            ],
            "anonymous": false
        },
        {
            "type": "error",
            "name": "ECDSAInvalidSignature",
            "inputs": []
        },
        {
            "type": "error",
            "name": "ECDSAInvalidSignatureLength",
            "inputs": [
                {
                    "name": "length",
                    "type": "uint256",
                    "internalType": "uint256"
                }
            ]
        },
        {
            "type": "error",
            "name": "ECDSAInvalidSignatureS",
            "inputs": [
                {
                    "name": "s",
                    "type": "bytes32",
                    "internalType": "bytes32"
                }
            ]
        }
    ],
    "bytecode": {
        "object": "0x608060405234801561001057600080fd5b506040516147f83803806147f883398101604081905261002f9161023b565b600280546001600160a01b0319166001600160a01b03851617905560408051808201825260098152684c7562616e436f726560b81b6020918201528151808301835260038152620312e360ec1b9082015281517f8b73c3c69bb8fe3d512ecc4cf759cc79239f7b179b0ffacaa9a75d522b39400f918101919091527fbe5008919e97ec9e4d515ced535da0ce78148eb6029d17ff3fb19f1a7c2c8bda918101919091527fe6bbd6277e1bf288eed5e8d1780f9a50b239e86b153736bceebccf4ea79d90b3606082015246608082018190529060a00160408051601f19818403018152908290528051602090910120600355309061012b90610205565b6001600160a01b039091168152602001604051809103906000f080158015610157573d6000803e3d6000fd5b506000806101000a8154816001600160a01b0302191690836001600160a01b031602179055508281833060405161018d90610212565b6001600160a01b0394851681526001600160401b0390931660208401526040830191909152919091166060820152608001604051809103906000f0801580156101da573d6000803e3d6000fd5b50600180546001600160a01b0319166001600160a01b03929092169190911790555061027792505050565b6113c58061204183390190565b6113f28061340683390190565b80516001600160a01b038116811461023657600080fd5b919050565b60008060006060848603121561025057600080fd5b6102598461021f565b92506102676020850161021f565b9150604084015190509250925092565b611dbb806102866000396000f3fe6080604052600436106101635760003560e01c80637aead2ca116100c0578063c58699db11610074578063d28dc10811610059578063d28dc10814610424578063e8976bd414610444578063e9a074351461047c57600080fd5b8063c58699db146103e4578063cf2302971461040457600080fd5b806392cc094f116100a557806392cc094f14610367578063a7fa583414610387578063b84776b7146103b457600080fd5b80637aead2ca1461031a5780638da5cb5b1461033a57600080fd5b8063529c76b51161011757806365ddf81a116100fc57806365ddf81a146102af5780636f5119e2146102cf57806375df7d16146102ef57600080fd5b8063529c76b51461023257806355c8b1531461026f57600080fd5b80634ab8980b116101485780634ab8980b146101ea5780634e8a0acb1461020c5780634fbab3621461021f57600080fd5b80633644e5151461016f5780633f7bd24e1461019857600080fd5b3661016a57005b600080fd5b34801561017b57600080fd5b5061018560035481565b6040519081526020015b60405180910390f35b3480156101a457600080fd5b506001546101c59073ffffffffffffffffffffffffffffffffffffffff1681565b60405173ffffffffffffffffffffffffffffffffffffffff909116815260200161018f565b3480156101f657600080fd5b5061020a6102053660046116df565b61049c565b005b61020a61021a366004611752565b61071c565b61020a61022d3660046117ac565b610851565b34801561023e57600080fd5b5061026261024d3660046117e8565b60009081526006602052604090205460ff1690565b60405161018f9190611830565b34801561027b57600080fd5b5061029f61028a366004611871565b60046020526000908152604090205460ff1681565b604051901515815260200161018f565b3480156102bb57600080fd5b506101856102ca3660046117ac565b610d1a565b3480156102db57600080fd5b5061020a6102ea3660046118a4565b610d8e565b3480156102fb57600080fd5b5060005473ffffffffffffffffffffffffffffffffffffffff166101c5565b34801561032657600080fd5b50610185610335366004611927565b610fcb565b34801561034657600080fd5b506002546101c59073ffffffffffffffffffffffffffffffffffffffff1681565b34801561037357600080fd5b5061018561038236600461198c565b611013565b34801561039357600080fd5b506000546101c59073ffffffffffffffffffffffffffffffffffffffff1681565b3480156103c057600080fd5b506102626103cf3660046117e8565b60066020526000908152604090205460ff1681565b3480156103f057600080fd5b506101856103ff3660046117e8565b61105f565b34801561041057600080fd5b5061018561041f3660046119a8565b6110b1565b34801561043057600080fd5b5061018561043f3660046119c4565b6110bf565b34801561045057600080fd5b5061018561045f3660046116df565b600560209081526000928352604080842090915290825290205481565b34801561048857600080fd5b5061020a610497366004611871565b611141565b60015473ffffffffffffffffffffffffffffffffffffffff16331461052e5760405162461bcd60e51b815260206004820152603160248201527f4f6e6c79204c7562616e4368616c6c656e67654d616e616765722063616e206360448201527f616c6c20746869732066756e6374696f6e00000000000000000000000000000060648201526084015b60405180910390fd5b73ffffffffffffffffffffffffffffffffffffffff82166000908152600560209081526040808320848452909152902054806105ac5760405162461bcd60e51b815260206004820152601160248201527f4e6f2074697020746f20636f6c6c6563740000000000000000000000000000006044820152606401610525565b60008373ffffffffffffffffffffffffffffffffffffffff168260405160006040518083038185875af1925050503d8060008114610606576040519150601f19603f3d011682016040523d82523d6000602084013e61060b565b606091505b505090508061065c5760405162461bcd60e51b815260206004820152601460248201527f4661696c656420746f2073656e642045746865720000000000000000000000006044820152606401610525565b60008381526006602090815260409182902080547fffffffffffffffffffffffffffffffffffffffffffffffffffffffffffffff00166003179055815184815290810185905273ffffffffffffffffffffffffffffffffffffffff8616917fe57f6388512f43ef7d4668918e17d0781d919a9565cfe442734bf22e4bf2c1b1910160405180910390a2505073ffffffffffffffffffffffffffffffffffffffff909116600090815260056020908152604080832093835292905290812055565b60005473ffffffffffffffffffffffffffffffffffffffff1633146107a95760405162461bcd60e51b815260206004820152602760248201527f4f6e6c79204c7562616e457363726f772063616e2063616c6c2074686973206660448201527f756e6374696f6e000000000000000000000000000000000000000000000000006064820152608401610525565b8334146107f85760405162461bcd60e51b815260206004820152601560248201527f4d69736d6174636865642065746865722073656e7400000000000000000000006044820152606401610525565b73ffffffffffffffffffffffffffffffffffffffff83166000908152600560205260408120859161082984866119fa565b815260200190815260200160002060008282546108469190611a65565b909155505050505050565b3360009081526004602052604090205460ff166108b05760405162461bcd60e51b815260206004820152601960248201527f43616c6c6572206973206e6f74206120707265636f6e666572000000000000006044820152606401610525565b80366108c0610140830183611a78565b905060c0830161012084013543146109405760405162461bcd60e51b815260206004820152603360248201527f507265636f6e662072657175657374207375626d69747465642061742074686560448201527f2077726f6e6720626c6f636b206e756d626572000000000000000000000000006064820152608401610525565b600061094c84836110bf565b905061095e6040850160208601611871565b73ffffffffffffffffffffffffffffffffffffffff1661098b82610986610180890189611ab6565b61121d565b73ffffffffffffffffffffffffffffffffffffffff16146109ee5760405162461bcd60e51b815260206004820152601660248201527f496e76616c69642075736572207369676e6174757265000000000000000000006044820152606401610525565b6109fe6060850160408601611871565b73ffffffffffffffffffffffffffffffffffffffff16610a3c610a25610180880188611ab6565b610a2e916119fa565b6109866101a0890189611ab6565b73ffffffffffffffffffffffffffffffffffffffff1614610a9f5760405162461bcd60e51b815260206004820152601b60248201527f496e76616c696420707265636f6e666572207369676e617475726500000000006044820152606401610525565b610aaf6080840160608501611b2b565b610ba2576000610ac26040850185611ab6565b905011610b115760405162461bcd60e51b815260206004820152601160248201527f43616c6c6461746120697320656d7074790000000000000000000000000000006044820152606401610525565b6000610b206020850185611871565b73ffffffffffffffffffffffffffffffffffffffff166020850135610b486040870187611ab6565b604051610b56929190611b46565b60006040518083038185875af1925050503d8060008114610b93576040519150601f19603f3d011682016040523d82523d6000602084013e610b98565b606091505b5050905050610c16565b6000610bb16020850185611871565b73ffffffffffffffffffffffffffffffffffffffff16846020013560405160006040518083038185875af1925050503d8060008114610c0c576040519150601f19603f3d011682016040523d82523d6000602084013e610c11565b606091505b505050505b60005473ffffffffffffffffffffffffffffffffffffffff1663a5bea53985610c43610160890189611ab6565b6001610c536101a08c018c611ab6565b6040518763ffffffff1660e01b8152600401610c7496959493929190611c03565b600060405180830381600087803b158015610c8e57600080fd5b505af1158015610ca2573d6000803e3d6000fd5b5050505060026006600087806101a00190610cbd9190611ab6565b610cc6916119fa565b8152602081019190915260400160002080547fffffffffffffffffffffffffffffffffffffffffffffffffffffffffffffff00166001836003811115610d0e57610d0e611801565b02179055505050505050565b60008160c08101610d2f610140830183611a78565b610d3d610160860186611ab6565b610d4b610180880188611ab6565b610d596101a08a018a611ab6565b604051602001610d7199989796959493929190611c50565b604051602081830303815290604052805190602001209050919050565b3360009081526004602052604090205460ff16610ded5760405162461bcd60e51b815260206004820152601960248201527f43616c6c6572206973206e6f74206120707265636f6e666572000000000000006044820152606401610525565b6000610df8866110b1565b9050610e0a6040870160208801611871565b73ffffffffffffffffffffffffffffffffffffffff16610e2b82878761121d565b73ffffffffffffffffffffffffffffffffffffffff1614610e8e5760405162461bcd60e51b815260206004820152601160248201527f496e76616c6964207369676e61747572650000000000000000000000000000006044820152606401610525565b610e98863561105f565b50600080546040517fa5bea53900000000000000000000000000000000000000000000000000000000815273ffffffffffffffffffffffffffffffffffffffff9091169163a5bea53991610ef8918a918a918a918a908a90600401611c03565b600060405180830381600087803b158015610f1257600080fd5b505af1158015610f26573d6000803e3d6000fd5b50505050600160066000858590610f3d91906119fa565b8152602081019190915260400160002080547fffffffffffffffffffffffffffffffffffffffffffffffffffffffffffffff00166001836003811115610f8557610f85611801565b02179055506040516060870135815233907f4d64a99bb001db3754a34d830c8df741fa7f36cf7a2c3fd2acd143afbe9e90369060200160405180910390a2505050505050565b73ffffffffffffffffffffffffffffffffffffffff8316600090815260056020526040812081610ffb84866119fa565b81526020019081526020016000205490509392505050565b600060035461102183611267565b6040517f1901000000000000000000000000000000000000000000000000000000000000602082015260228101929092526042820152606201610d71565b6000805a905060005b838110156110aa57835a61107c8484611a65565b6110869190611d9b565b116110aa575a6110969083611d9b565b6110a09082611a65565b90505a9150611068565b9392505050565b600060035461102183611393565b6000806110cb846110b1565b905060006110d884611013565b6003546040517f190100000000000000000000000000000000000000000000000000000000000060208201526022810191909152604281018490526062810182905290915060820160405160208183030381529060405280519060200120925050505b92915050565b60025473ffffffffffffffffffffffffffffffffffffffff1633146111ce5760405162461bcd60e51b815260206004820152602160248201527f4f6e6c79206f776e65722063616e2063616c6c20746869732066756e6374696f60448201527f6e000000000000000000000000000000000000000000000000000000000000006064820152608401610525565b73ffffffffffffffffffffffffffffffffffffffff16600090815260046020526040902080547fffffffffffffffffffffffffffffffffffffffffffffffffffffffffffffff00166001179055565b600061125f8484848080601f01602080910402602001604051908101604052809392919081815260200183838082843760009201919091525061143d92505050565b949350505050565b6040517f507265636f6e66436f6e646974696f6e7328000000000000000000000000000060208201527f496e636c7573696f6e4d65746120696e636c7573696f6e4d657461446174612c60328201527f4f72646572696e674d657461206f72646572696e674d657461446174612c000060528201527f75696e7432353620626c6f636b4e756d6265720000000000000000000000000060708201527f29000000000000000000000000000000000000000000000000000000000000006083820152600090608401604080518083037fffffffffffffffffffffffffffffffffffffffffffffffffffffffffffffffe001815282825280516020918201208184015284358383015284013560608084019190915290840135608083015283013560a082015260c001610d71565b60007f3bc6fb1900544ed4382c879c9c0ee4b973fdd96b34409f8cbaeb11b7ca17a8d582356113c86040850160208601611871565b6113d86060860160408701611871565b60408051602081019590955284019290925273ffffffffffffffffffffffffffffffffffffffff90811660608481019190915291166080838101919091529084013560a0838101919091529084013560c083015283013560e082015261010001610d71565b60008060008061144d8686611467565b92509250925061145d82826114b4565b5090949350505050565b600080600083516041036114a15760208401516040850151606086015160001a611493888285856115bc565b9550955095505050506114ad565b50508151600091506002905b9250925092565b60008260038111156114c8576114c8611801565b036114d1575050565b60018260038111156114e5576114e5611801565b0361151c576040517ff645eedf00000000000000000000000000000000000000000000000000000000815260040160405180910390fd5b600282600381111561153057611530611801565b0361156a576040517ffce698f700000000000000000000000000000000000000000000000000000000815260048101829052602401610525565b600382600381111561157e5761157e611801565b036115b8576040517fd78bce0c00000000000000000000000000000000000000000000000000000000815260048101829052602401610525565b5050565b600080807f7fffffffffffffffffffffffffffffff5d576e7357a4501ddfe92f46681b20a08411156115f757506000915060039050826116ac565b604080516000808252602082018084528a905260ff891692820192909252606081018790526080810186905260019060a0016020604051602081039080840390855afa15801561164b573d6000803e3d6000fd5b50506040517fffffffffffffffffffffffffffffffffffffffffffffffffffffffffffffffe0015191505073ffffffffffffffffffffffffffffffffffffffff81166116a2575060009250600191508290506116ac565b9250600091508190505b9450945094915050565b803573ffffffffffffffffffffffffffffffffffffffff811681146116da57600080fd5b919050565b600080604083850312156116f257600080fd5b6116fb836116b6565b946020939093013593505050565b60008083601f84011261171b57600080fd5b50813567ffffffffffffffff81111561173357600080fd5b60208301915083602082850101111561174b57600080fd5b9250929050565b6000806000806060858703121561176857600080fd5b84359350611778602086016116b6565b9250604085013567ffffffffffffffff81111561179457600080fd5b6117a087828801611709565b95989497509550505050565b6000602082840312156117be57600080fd5b813567ffffffffffffffff8111156117d557600080fd5b82016101c081850312156110aa57600080fd5b6000602082840312156117fa57600080fd5b5035919050565b7f4e487b7100000000000000000000000000000000000000000000000000000000600052602160045260246000fd5b602081016004831061186b577f4e487b7100000000000000000000000000000000000000000000000000000000600052602160045260246000fd5b91905290565b60006020828403121561188357600080fd5b6110aa826116b6565b600060c0828403121561189e57600080fd5b50919050565b600080600080600061010086880312156118bd57600080fd5b6118c7878761188c565b945060c086013567ffffffffffffffff808211156118e457600080fd5b6118f089838a01611709565b909650945060e088013591508082111561190957600080fd5b5061191688828901611709565b969995985093965092949392505050565b60008060006040848603121561193c57600080fd5b611945846116b6565b9250602084013567ffffffffffffffff81111561196157600080fd5b61196d86828701611709565b9497909650939450505050565b60006080828403121561189e57600080fd5b60006080828403121561199e57600080fd5b6110aa838361197a565b600060c082840312156119ba57600080fd5b6110aa838361188c565b60008061014083850312156119d857600080fd5b6119e2848461188c565b91506119f18460c0850161197a565b90509250929050565b8035602083101561113b577fffffffffffffffffffffffffffffffffffffffffffffffffffffffffffffffff602084900360031b1b1692915050565b7f4e487b7100000000000000000000000000000000000000000000000000000000600052601160045260246000fd5b8082018082111561113b5761113b611a36565b600082357fffffffffffffffffffffffffffffffffffffffffffffffffffffffffffffff81833603018112611aac57600080fd5b9190910192915050565b60008083357fffffffffffffffffffffffffffffffffffffffffffffffffffffffffffffffe1843603018112611aeb57600080fd5b83018035915067ffffffffffffffff821115611b0657600080fd5b60200191503681900382131561174b57600080fd5b803580151581146116da57600080fd5b600060208284031215611b3d57600080fd5b6110aa82611b1b565b8183823760009101908152919050565b80358252611b66602082016116b6565b73ffffffffffffffffffffffffffffffffffffffff808216602085015280611b90604085016116b6565b1660408501525050606081013560608301526080810135608083015260a081013560a08301525050565b8183528181602085013750600060208284010152600060207fffffffffffffffffffffffffffffffffffffffffffffffffffffffffffffffe0601f840116840101905092915050565b6000610120611c12838a611b56565b8060c0840152611c25818401888a611bba565b905085151560e0840152828103610100840152611c43818587611bba565b9998505050505050505050565b60006101c0611c5f838d611b56565b8a3560c084015260208b013560e084015260408b013561010084015260608b01356101208401528061014084015273ffffffffffffffffffffffffffffffffffffffff611cab8b6116b6565b16818401525060208901356101e083015260408901357fffffffffffffffffffffffffffffffffffffffffffffffffffffffffffffffe18a3603018112611cf157600080fd5b890160208101903567ffffffffffffffff811115611d0e57600080fd5b803603821315611d1d57600080fd5b6080610200850152611d3461024085018284611bba565b915050611d4360608b01611b1b565b1515610220840152828103610160840152611d5f81898b611bba565b9050828103610180840152611d75818789611bba565b90508281036101a0840152611d8b818587611bba565b9c9b505050505050505050505050565b8181038181111561113b5761113b611a3656fea164736f6c6343000819000a608060405260001960065534801561001657600080fd5b506040516113c53803806113c5833981016040819052610035916100c3565b60016000556001600160a01b0381166100945760405162461bcd60e51b815260206004820181905260248201527f4c7562616e436f726520616464726573732063616e6e6f74206265207a65726f604482015260640160405180910390fd5b600580546001600160a01b039092166001600160a01b03199283168117909155600180549092161790556100f3565b6000602082840312156100d557600080fd5b81516001600160a01b03811681146100ec57600080fd5b9392505050565b6112c3806101026000396000f3fe6080604052600436106100d65760003560e01c8063745400c91161007f578063b6dae30a11610059578063b6dae30a1461028e578063b7d03797146102d1578063b9330829146102fe578063d0e30db01461031457600080fd5b8063745400c9146102215780639e67ec5d14610241578063a5bea5391461026e57600080fd5b80632e1a7d4d116100b05780632e1a7d4d1461019157806370a08231146101b157806370ae92d2146101f457600080fd5b80630f308979146100ea5780631820cabb1461014157806327e235e31461016457600080fd5b366100e5576100e3610318565b005b600080fd5b3480156100f657600080fd5b506001546101179073ffffffffffffffffffffffffffffffffffffffff1681565b60405173ffffffffffffffffffffffffffffffffffffffff90911681526020015b60405180910390f35b34801561014d57600080fd5b50610156604081565b604051908152602001610138565b34801561017057600080fd5b5061015661017f366004610fde565b60026020526000908152604090205481565b34801561019d57600080fd5b506100e36101ac366004611000565b610424565b3480156101bd57600080fd5b506101566101cc366004610fde565b73ffffffffffffffffffffffffffffffffffffffff1660009081526002602052604090205490565b34801561020057600080fd5b5061015661020f366004610fde565b60046020526000908152604090205481565b34801561022d57600080fd5b506100e361023c366004611000565b61067c565b34801561024d57600080fd5b506005546101179073ffffffffffffffffffffffffffffffffffffffff1681565b34801561027a57600080fd5b506100e3610289366004611062565b61076a565b34801561029a57600080fd5b506101566102a9366004610fde565b73ffffffffffffffffffffffffffffffffffffffff1660009081526003602052604090205490565b3480156102dd57600080fd5b506101566102ec366004610fde565b60036020526000908152604090205481565b34801561030a57600080fd5b5061015660065481565b6100e35b600034116103ad576040517f08c379a000000000000000000000000000000000000000000000000000000000815260206004820152602860248201527f4465706f73697420616d6f756e74206d7573742062652067726561746572207460448201527f68616e207a65726f00000000000000000000000000000000000000000000000060648201526084015b60405180910390fd5b33600090815260026020526040812080543492906103cc908490611135565b909155505060065433600081815260036020526040908190209290925590517f2da466a7b24304f47e87fa2e1e5a81b9831ce54fec19055ce277ca2f39ba42c49061041a9034815260200190565b60405180910390a2565b61042c610cad565b336000908152600260205260409020548111156104a5576040517f08c379a000000000000000000000000000000000000000000000000000000000815260206004820152601460248201527f496e73756666696369656e742062616c616e636500000000000000000000000060448201526064016103a4565b60065433600090815260036020526040902054148015906104e157503360009081526003602052604090819020546104dd9190611135565b4310155b610547576040517f08c379a000000000000000000000000000000000000000000000000000000000815260206004820152601460248201527f5769746864726177616c206973206c6f636b656400000000000000000000000060448201526064016103a4565b3360009081526002602052604081208054839290610566908490611148565b9091555050604051600090339083908381818185875af1925050503d80600081146105ad576040519150601f19603f3d011682016040523d82523d6000602084013e6105b2565b606091505b505090508061061d576040517f08c379a000000000000000000000000000000000000000000000000000000000815260206004820152601460248201527f4661696c656420746f2073656e6420457468657200000000000000000000000060448201526064016103a4565b60065433600081815260036020526040908190209290925590517f7084f5476618d8e60b11ef0d7d3f06914655adb8793e28ff7f018d4c76d505d5906106669085815260200190565b60405180910390a2506106796001600055565b50565b3360009081526002602052604090205481111561071b576040517f08c379a000000000000000000000000000000000000000000000000000000000815260206004820152602860248201527f496e73756666696369656e742062616c616e636520746f20726571756573742060448201527f776974686472617700000000000000000000000000000000000000000000000060648201526084016103a4565b3360008181526003602052604090819020439055517f7a20b0fa4183ed600fe1a67a078e6ba00e5992b52d176df6d13dc2936acc290d9061075f9084815260200190565b60405180910390a250565b610772610cad565b60055473ffffffffffffffffffffffffffffffffffffffff163314610819576040517f08c379a000000000000000000000000000000000000000000000000000000000815260206004820152602760248201527f4f6e6c79204c7562616e436f72652063616e20696e697469617465207468697360448201527f207061796f75740000000000000000000000000000000000000000000000000060648201526084016103a4565b6001546040517fcf23029700000000000000000000000000000000000000000000000000000000815260009173ffffffffffffffffffffffffffffffffffffffff169063cf23029790610870908a9060040161115b565b602060405180830381865afa15801561088d573d6000803e3d6000fd5b505050506040513d601f19601f820116820180604052508101906108b191906111c5565b90506108c36040880160208901610fde565b73ffffffffffffffffffffffffffffffffffffffff166108e4828888610cf0565b73ffffffffffffffffffffffffffffffffffffffff1614610961576040517f08c379a000000000000000000000000000000000000000000000000000000000815260206004820152601160248201527f496e76616c6964207369676e617475726500000000000000000000000000000060448201526064016103a4565b600084610972578760600135610984565b610984608089013560608a0135611135565b9050806002600061099b60408c0160208d01610fde565b73ffffffffffffffffffffffffffffffffffffffff1673ffffffffffffffffffffffffffffffffffffffff168152602001908152602001600020541015610a3e576040517f08c379a000000000000000000000000000000000000000000000000000000000815260206004820152601460248201527f496e73756666696369656e742062616c616e636500000000000000000000000060448201526064016103a4565b60046000610a5260408b0160208c01610fde565b73ffffffffffffffffffffffffffffffffffffffff1673ffffffffffffffffffffffffffffffffffffffff168152602001908152602001600020548860a0013514610af9576040517f08c379a000000000000000000000000000000000000000000000000000000000815260206004820152601360248201527f496e636f727265637420746970206e6f6e63650000000000000000000000000060448201526064016103a4565b60046000610b0d60408b0160208c01610fde565b73ffffffffffffffffffffffffffffffffffffffff16815260208101919091526040016000908120805491610b41836111de565b9091555081905060026000610b5c60408c0160208d01610fde565b73ffffffffffffffffffffffffffffffffffffffff1673ffffffffffffffffffffffffffffffffffffffff1681526020019081526020016000206000828254610ba59190611148565b909155505060015473ffffffffffffffffffffffffffffffffffffffff16634e8a0acb8280610bda60608d0160408e01610fde565b88886040518663ffffffff1660e01b8152600401610bfb9493929190611216565b6000604051808303818588803b158015610c1457600080fd5b505af1158015610c28573d6000803e3d6000fd5b50610c3f93505060408b0191505060208a01610fde565b73ffffffffffffffffffffffffffffffffffffffff167f729659476ddfdbe82b4e16c19895d9f939f33a114b5c9f17b679b06daf7393fc8287604051610c919291909182521515602082015260400190565b60405180910390a25050610ca56001600055565b505050505050565b600260005403610ce9576040517f3ee5aeb500000000000000000000000000000000000000000000000000000000815260040160405180910390fd5b6002600055565b6000610d328484848080601f016020809104026020016040519081016040528093929190818152602001838380828437600092019190915250610d3a92505050565b949350505050565b600080600080610d4a8686610d66565b925092509250610d5a8282610db3565b50909150505b92915050565b60008060008351604103610da05760208401516040850151606086015160001a610d9288828585610ebb565b955095509550505050610dac565b50508151600091506002905b9250925092565b6000826003811115610dc757610dc7611287565b03610dd0575050565b6001826003811115610de457610de4611287565b03610e1b576040517ff645eedf00000000000000000000000000000000000000000000000000000000815260040160405180910390fd5b6002826003811115610e2f57610e2f611287565b03610e69576040517ffce698f7000000000000000000000000000000000000000000000000000000008152600481018290526024016103a4565b6003826003811115610e7d57610e7d611287565b03610eb7576040517fd78bce0c000000000000000000000000000000000000000000000000000000008152600481018290526024016103a4565b5050565b600080807f7fffffffffffffffffffffffffffffff5d576e7357a4501ddfe92f46681b20a0841115610ef65750600091506003905082610fab565b604080516000808252602082018084528a905260ff891692820192909252606081018790526080810186905260019060a0016020604051602081039080840390855afa158015610f4a573d6000803e3d6000fd5b50506040517fffffffffffffffffffffffffffffffffffffffffffffffffffffffffffffffe0015191505073ffffffffffffffffffffffffffffffffffffffff8116610fa157506000925060019150829050610fab565b9250600091508190505b9450945094915050565b803573ffffffffffffffffffffffffffffffffffffffff81168114610fd957600080fd5b919050565b600060208284031215610ff057600080fd5b610ff982610fb5565b9392505050565b60006020828403121561101257600080fd5b5035919050565b60008083601f84011261102b57600080fd5b50813567ffffffffffffffff81111561104357600080fd5b60208301915083602082850101111561105b57600080fd5b9250929050565b60008060008060008086880361012081121561107d57600080fd5b60c081121561108b57600080fd5b5086955060c087013567ffffffffffffffff808211156110aa57600080fd5b6110b68a838b01611019565b909750955060e0890135915081151582146110d057600080fd5b90935061010088013590808211156110e757600080fd5b506110f489828a01611019565b979a9699509497509295939492505050565b7f4e487b7100000000000000000000000000000000000000000000000000000000600052601160045260246000fd5b80820180821115610d6057610d60611106565b81810381811115610d6057610d60611106565b8135815260c0810161116f60208401610fb5565b73ffffffffffffffffffffffffffffffffffffffff80821660208501528061119960408701610fb5565b1660408501525050606083013560608301526080830135608083015260a083013560a083015292915050565b6000602082840312156111d757600080fd5b5051919050565b60007fffffffffffffffffffffffffffffffffffffffffffffffffffffffffffffffff820361120f5761120f611106565b5060010190565b84815273ffffffffffffffffffffffffffffffffffffffff8416602082015260606040820152816060820152818360808301376000818301608090810191909152601f9092017fffffffffffffffffffffffffffffffffffffffffffffffffffffffffffffffe01601019392505050565b7f4e487b7100000000000000000000000000000000000000000000000000000000600052602160045260246000fdfea164736f6c6343000819000a60e060405234801561001057600080fd5b506040516113f23803806113f283398101604081905261002f916100b4565b836001600160a01b0381166100575760405163d86f565560e01b815260040160405180910390fd5b6001600160a01b0390811660805260a0929092526001600160401b039290921660c052600080546001600160a01b0319169290911691909117905550610111565b80516001600160a01b03811681146100af57600080fd5b919050565b600080600080608085870312156100ca57600080fd5b6100d385610098565b60208601519094506001600160401b03811681146100f057600080fd5b6040860151909350915061010660608601610098565b905092959194509250565b60805160a05160c0516112a561014d60003960006102b101526000610353015260008181609f0152818161010101526101f301526112a56000f3fe608060405234801561001057600080fd5b506004361061004c5760003560e01c80630f308979146100515780632a75d3be1461009a5780638193399c146100c1578063dc5cd53c146100d6575b600080fd5b6000546100719073ffffffffffffffffffffffffffffffffffffffff1681565b60405173ffffffffffffffffffffffffffffffffffffffff909116815260200160405180910390f35b6100717f000000000000000000000000000000000000000000000000000000000000000081565b6100d46100cf3660046110bb565b6100e9565b005b6100d46100e43660046110bb565b6101db565b3373ffffffffffffffffffffffffffffffffffffffff7f00000000000000000000000000000000000000000000000000000000000000001614610158576040517f25ce393e00000000000000000000000000000000000000000000000000000000815260040160405180910390fd5b60405173ffffffffffffffffffffffffffffffffffffffff881681528590879067ffffffffffffffff8b16907fd6d9923f6afa6ae6afc97c99da22b8ccadc9beafe897857b2434da0a402da98c9060200160405180910390a46101c160018989898987876102af565b6101d188888888888888886103e3565b5050505050505050565b3373ffffffffffffffffffffffffffffffffffffffff7f0000000000000000000000000000000000000000000000000000000000000000161461024a576040517f25ce393e00000000000000000000000000000000000000000000000000000000815260040160405180910390fd5b60405173ffffffffffffffffffffffffffffffffffffffff881681528590879067ffffffffffffffff8b16907fc6d3309bf887e48755c9a455e332b73641b6bf2fd018e3b608bf21676c4c0af59060200160405180910390a46101c160008989898987875b7f000000000000000000000000000000000000000000000000000000000000000067ffffffffffffffff168667ffffffffffffffff1614610351576040517f08c379a000000000000000000000000000000000000000000000000000000000815260206004820152601e60248201527f536f7572636520636861696e20494420646f6573206e6f74206d61746368000060448201526064015b60405180910390fd5b7f000000000000000000000000000000000000000000000000000000000000000084146103da576040517f08c379a000000000000000000000000000000000000000000000000000000000815260206004820152601460248201527f496e76616c696420717565727920736368656d610000000000000000000000006044820152606401610348565b50505050505050565b60006040518060c001604052808686600081811061040357610403611185565b9050602002013560001c81526020018686600181811061042557610425611185565b9050602002013560001c73ffffffffffffffffffffffffffffffffffffffff1681526020018686600281811061045d5761045d611185565b9050602002013560001c73ffffffffffffffffffffffffffffffffffffffff1681526020018686600381811061049557610495611185565b9050602002013560001c8152602001868660048181106104b7576104b7611185565b9050602002013560001c8152602001868660058181106104d9576104d9611185565b9050602002013560001c8152509050600060405180602001604052808787600681811061050857610508611185565b9050602002013560001c8152509050600060405180604001604052808888600781811061053757610537611185565b9050602002013560001c81526020018888600881811061055957610559611185565b9050602002013560001c8152509050600060405180606001604052808481526020018381526020018989600981811061059457610594611185565b9050602002013560001c81525090506000602067ffffffffffffffff8111156105bf576105bf6111b4565b6040519080825280601f01601f1916602001820160405280156105e9576020820181803683370190505b50905060005b6020811015610670578989600e81811061060b5761060b611185565b90506020020135816020811061062357610623611185565b1a60f81b82828151811061063957610639611185565b60200101907effffffffffffffffffffffffffffffffffffffffffffffffffffffffffffff1916908160001a9053506001016105ef565b5060408051602080825281830190925260009160208201818036833701905050905060005b6020811015610716578a8a600f8181106106b1576106b1611185565b9050602002013581602081106106c9576106c9611185565b1a60f81b8282815181106106df576106df611185565b60200101907effffffffffffffffffffffffffffffffffffffffffffffffffffffffffffff1916908160001a905350600101610695565b5060008054604080517fd28dc108000000000000000000000000000000000000000000000000000000008152895160048201526020808b015173ffffffffffffffffffffffffffffffffffffffff90811660248401528b8401518116604484015260608c0151606484015260808c0151608484015260a08c015160a484015288515160c484015281890151805160e4850152909101516101048301529187015161012482015291169063d28dc1089061014401602060405180830381865afa1580156107e6573d6000803e3d6000fd5b505050506040513d601f19601f8201168201806040525081019061080a91906111e3565b9050866020015173ffffffffffffffffffffffffffffffffffffffff166108318285610db4565b73ffffffffffffffffffffffffffffffffffffffff16146108ae576040517f08c379a000000000000000000000000000000000000000000000000000000000815260206004820152601660248201527f496e76616c69642075736572207369676e6174757265000000000000000000006044820152606401610348565b604087015173ffffffffffffffffffffffffffffffffffffffff166108db6108d5856111fc565b84610db4565b73ffffffffffffffffffffffffffffffffffffffff1614610958576040517f08c379a000000000000000000000000000000000000000000000000000000000815260206004820152601b60248201527f496e76616c696420707265636f6e666572207369676e617475726500000000006044820152606401610348565b6000805473ffffffffffffffffffffffffffffffffffffffff1663529c76b5610980856111fc565b6040518263ffffffff1660e01b815260040161099e91815260200190565b602060405180830381865afa1580156109bb573d6000803e3d6000fd5b505050506040513d601f19601f820116820180604052508101906109df9190611241565b905060038160038111156109f5576109f5611269565b03610a82576040517f08c379a000000000000000000000000000000000000000000000000000000000815260206004820152602960248201527f507265636f6e66526571756573742068617320616c7265616479206265656e2060448201527f636f6c6c656374656400000000000000000000000000000000000000000000006064820152608401610348565b6000816003811115610a9657610a96611269565b03610b34578460400151431015610b2f576040517f08c379a000000000000000000000000000000000000000000000000000000000815260206004820152603660248201527f507265636f6e665265717565737420686173206e6f742072656163686564207460448201527f686520626c6f636b2072657175657374656420796574000000000000000000006064820152608401610348565b610da2565b6001816003811115610b4857610b48611269565b03610c0557600054604089015173ffffffffffffffffffffffffffffffffffffffff90911690634ab8980b90610b7d866111fc565b6040517fffffffff0000000000000000000000000000000000000000000000000000000060e085901b16815273ffffffffffffffffffffffffffffffffffffffff90921660048301526024820152604401600060405180830381600087803b158015610be857600080fd5b505af1158015610bfc573d6000803e3d6000fd5b50505050610da2565b6002816003811115610c1957610c19611269565b03610da2578560200151600003610c5a57600054604089015173ffffffffffffffffffffffffffffffffffffffff90911690634ab8980b90610b7d866111fc565b60008c8c6010818110610c6f57610c6f611185565b9050602002013560001c905060008d8d6011818110610c9057610c90611185565b6000546020909102929092013592505073ffffffffffffffffffffffffffffffffffffffff8381169116148015610ce657507f4fbab3620000000000000000000000000000000000000000000000000000000081145b15610d9f5760005460408b015173ffffffffffffffffffffffffffffffffffffffff90911690634ab8980b90610d1b886111fc565b6040517fffffffff0000000000000000000000000000000000000000000000000000000060e085901b16815273ffffffffffffffffffffffffffffffffffffffff90921660048301526024820152604401600060405180830381600087803b158015610d8657600080fd5b505af1158015610d9a573d6000803e3d6000fd5b505050505b50505b50505050505050505050505050505050565b600080600080610dc48686610dde565b925092509250610dd48282610e2b565b5090949350505050565b60008060008351604103610e185760208401516040850151606086015160001a610e0a88828585610f33565b955095509550505050610e24565b50508151600091506002905b9250925092565b6000826003811115610e3f57610e3f611269565b03610e48575050565b6001826003811115610e5c57610e5c611269565b03610e93576040517ff645eedf00000000000000000000000000000000000000000000000000000000815260040160405180910390fd5b6002826003811115610ea757610ea7611269565b03610ee1576040517ffce698f700000000000000000000000000000000000000000000000000000000815260048101829052602401610348565b6003826003811115610ef557610ef5611269565b03610f2f576040517fd78bce0c00000000000000000000000000000000000000000000000000000000815260048101829052602401610348565b5050565b600080807f7fffffffffffffffffffffffffffffff5d576e7357a4501ddfe92f46681b20a0841115610f6e5750600091506003905082611023565b604080516000808252602082018084528a905260ff891692820192909252606081018790526080810186905260019060a0016020604051602081039080840390855afa158015610fc2573d6000803e3d6000fd5b50506040517fffffffffffffffffffffffffffffffffffffffffffffffffffffffffffffffe0015191505073ffffffffffffffffffffffffffffffffffffffff811661101957506000925060019150829050611023565b9250600091508190505b9450945094915050565b60008083601f84011261103f57600080fd5b50813567ffffffffffffffff81111561105757600080fd5b6020830191508360208260051b850101111561107257600080fd5b9250929050565b60008083601f84011261108b57600080fd5b50813567ffffffffffffffff8111156110a357600080fd5b60208301915083602082850101111561107257600080fd5b60008060008060008060008060c0898b0312156110d757600080fd5b883567ffffffffffffffff80821682146110f057600080fd5b90985060208a01359073ffffffffffffffffffffffffffffffffffffffff8216821461111b57600080fd5b90975060408a0135965060608a0135955060808a0135908082111561113f57600080fd5b61114b8c838d0161102d565b909650945060a08b013591508082111561116457600080fd5b506111718b828c01611079565b999c989b5096995094979396929594505050565b7f4e487b7100000000000000000000000000000000000000000000000000000000600052603260045260246000fd5b7f4e487b7100000000000000000000000000000000000000000000000000000000600052604160045260246000fd5b6000602082840312156111f557600080fd5b5051919050565b8051602080830151919081101561123b577fffffffffffffffffffffffffffffffffffffffffffffffffffffffffffffffff8160200360031b1b821691505b50919050565b60006020828403121561125357600080fd5b81516004811061126257600080fd5b9392505050565b7f4e487b7100000000000000000000000000000000000000000000000000000000600052602160045260246000fdfea164736f6c6343000819000a",
        "linkReferences": {}
    },
    "methodIdentifiers": {
        "DOMAIN_SEPARATOR()": "3644e515",
        "collectTip(address,bytes32)": "4ab8980b",
        "exhaust((uint256,address,address,uint256,uint256,uint256),bytes,bytes)": "6f5119e2",
        "gasBurner(uint256)": "c58699db",
        "getLubanEscrow()": "75df7d16",
        "getPreconfConditionsHash(((uint256),(uint256,uint256),uint256))": "92cc094f",
        "getPreconfRequestHash(((uint256,address,address,uint256,uint256,uint256),((uint256),(uint256,uint256),uint256),(address,uint256,bytes,bool),bytes,bytes,bytes))": "65ddf81a",
        "getPreconfRequestStatus(bytes32)": "529c76b5",
        "getPreconferBalance(address,bytes)": "7aead2ca",
        "getTipTxAndPreconfConditionsHash((uint256,address,address,uint256,uint256,uint256),((uint256),(uint256,uint256),uint256))": "d28dc108",
        "getTipTxHash((uint256,address,address,uint256,uint256,uint256))": "cf230297",
        "handlePayment(uint256,address,bytes)": "4e8a0acb",
        "lubanChallengeManager()": "3f7bd24e",
        "lubanEscrow()": "a7fa5834",
        "owner()": "8da5cb5b",
        "preconfRequestStatus(bytes32)": "b84776b7",
        "preconferList(address)": "55c8b153",
        "preconferTips(address,bytes32)": "e8976bd4",
        "registerPreconfer(address)": "e9a07435",
        "settleRequest(((uint256,address,address,uint256,uint256,uint256),((uint256),(uint256,uint256),uint256),(address,uint256,bytes,bool),bytes,bytes,bytes))": "4fbab362"
    },
    "id": 51
}