{
    "abi": [
        {
            "type": "constructor",
            "inputs": [
                {
                    "name": "axiomV2QueryAddress_",
                    "type": "address",
                    "internalType": "address"
                },
                {
                    "name": "callbackSourceChainId_",
                    "type": "uint64",
                    "internalType": "uint64"
                },
                {
                    "name": "querySchema_",
                    "type": "bytes32",
                    "internalType": "bytes32"
                },
                {
                    "name": "_lubanCore",
                    "type": "address",
                    "internalType": "address"
                }
            ],
            "stateMutability": "nonpayable"
        },
        {
            "type": "function",
            "name": "axiomV2Callback",
            "inputs": [
                {
                    "name": "sourceChainId",
                    "type": "uint64",
                    "internalType": "uint64"
                },
                {
                    "name": "caller",
                    "type": "address",
                    "internalType": "address"
                },
                {
                    "name": "querySchema",
                    "type": "bytes32",
                    "internalType": "bytes32"
                },
                {
                    "name": "queryId",
                    "type": "uint256",
                    "internalType": "uint256"
                },
                {
                    "name": "axiomResults",
                    "type": "bytes32[]",
                    "internalType": "bytes32[]"
                },
                {
                    "name": "extraData",
                    "type": "bytes",
                    "internalType": "bytes"
                }
            ],
            "outputs": [],
            "stateMutability": "nonpayable"
        },
        {
            "type": "function",
            "name": "axiomV2OffchainCallback",
            "inputs": [
                {
                    "name": "sourceChainId",
                    "type": "uint64",
                    "internalType": "uint64"
                },
                {
                    "name": "caller",
                    "type": "address",
                    "internalType": "address"
                },
                {
                    "name": "querySchema",
                    "type": "bytes32",
                    "internalType": "bytes32"
                },
                {
                    "name": "queryId",
                    "type": "uint256",
                    "internalType": "uint256"
                },
                {
                    "name": "axiomResults",
                    "type": "bytes32[]",
                    "internalType": "bytes32[]"
                },
                {
                    "name": "extraData",
                    "type": "bytes",
                    "internalType": "bytes"
                }
            ],
            "outputs": [],
            "stateMutability": "nonpayable"
        },
        {
            "type": "function",
            "name": "axiomV2QueryAddress",
            "inputs": [],
            "outputs": [
                {
                    "name": "",
                    "type": "address",
                    "internalType": "address"
                }
            ],
            "stateMutability": "view"
        },
        {
            "type": "function",
            "name": "lubanCore",
            "inputs": [],
            "outputs": [
                {
                    "name": "",
                    "type": "address",
                    "internalType": "contract ILubanCore"
                }
            ],
            "stateMutability": "view"
        },
        {
            "type": "event",
            "name": "AxiomV2Call",
            "inputs": [
                {
                    "name": "sourceChainId",
                    "type": "uint64",
                    "indexed": true,
                    "internalType": "uint64"
                },
                {
                    "name": "caller",
                    "type": "address",
                    "indexed": false,
                    "internalType": "address"
                },
                {
                    "name": "querySchema",
                    "type": "bytes32",
                    "indexed": true,
                    "internalType": "bytes32"
                },
                {
                    "name": "queryId",
                    "type": "uint256",
                    "indexed": true,
                    "internalType": "uint256"
                }
            ],
            "anonymous": false
        },
        {
            "type": "event",
            "name": "AxiomV2OffchainCall",
            "inputs": [
                {
                    "name": "sourceChainId",
                    "type": "uint64",
                    "indexed": true,
                    "internalType": "uint64"
                },
                {
                    "name": "caller",
                    "type": "address",
                    "indexed": false,
                    "internalType": "address"
                },
                {
                    "name": "querySchema",
                    "type": "bytes32",
                    "indexed": true,
                    "internalType": "bytes32"
                },
                {
                    "name": "queryId",
                    "type": "uint256",
                    "indexed": true,
                    "internalType": "uint256"
                }
            ],
            "anonymous": false
        },
        {
            "type": "error",
            "name": "AxiomV2QueryAddressIsZero",
            "inputs": []
        },
        {
            "type": "error",
            "name": "CallerMustBeAxiomV2Query",
            "inputs": []
        },
        {
            "type": "error",
            "name": "ECDSAInvalidSignature",
            "inputs": []
        },
        {
            "type": "error",
            "name": "ECDSAInvalidSignatureLength",
            "inputs": [
                {
                    "name": "length",
                    "type": "uint256",
                    "internalType": "uint256"
                }
            ]
        },
        {
            "type": "error",
            "name": "ECDSAInvalidSignatureS",
            "inputs": [
                {
                    "name": "s",
                    "type": "bytes32",
                    "internalType": "bytes32"
                }
            ]
        }
    ],
    "bytecode": {
        "object": "0x60e060405234801561001057600080fd5b506040516113f23803806113f283398101604081905261002f916100b4565b836001600160a01b0381166100575760405163d86f565560e01b815260040160405180910390fd5b6001600160a01b0390811660805260a0929092526001600160401b039290921660c052600080546001600160a01b0319169290911691909117905550610111565b80516001600160a01b03811681146100af57600080fd5b919050565b600080600080608085870312156100ca57600080fd5b6100d385610098565b60208601519094506001600160401b03811681146100f057600080fd5b6040860151909350915061010660608601610098565b905092959194509250565b60805160a05160c0516112a561014d60003960006102b101526000610353015260008181609f0152818161010101526101f301526112a56000f3fe608060405234801561001057600080fd5b506004361061004c5760003560e01c80630f308979146100515780632a75d3be1461009a5780638193399c146100c1578063dc5cd53c146100d6575b600080fd5b6000546100719073ffffffffffffffffffffffffffffffffffffffff1681565b60405173ffffffffffffffffffffffffffffffffffffffff909116815260200160405180910390f35b6100717f000000000000000000000000000000000000000000000000000000000000000081565b6100d46100cf3660046110bb565b6100e9565b005b6100d46100e43660046110bb565b6101db565b3373ffffffffffffffffffffffffffffffffffffffff7f00000000000000000000000000000000000000000000000000000000000000001614610158576040517f25ce393e00000000000000000000000000000000000000000000000000000000815260040160405180910390fd5b60405173ffffffffffffffffffffffffffffffffffffffff881681528590879067ffffffffffffffff8b16907fd6d9923f6afa6ae6afc97c99da22b8ccadc9beafe897857b2434da0a402da98c9060200160405180910390a46101c160018989898987876102af565b6101d188888888888888886103e3565b5050505050505050565b3373ffffffffffffffffffffffffffffffffffffffff7f0000000000000000000000000000000000000000000000000000000000000000161461024a576040517f25ce393e00000000000000000000000000000000000000000000000000000000815260040160405180910390fd5b60405173ffffffffffffffffffffffffffffffffffffffff881681528590879067ffffffffffffffff8b16907fc6d3309bf887e48755c9a455e332b73641b6bf2fd018e3b608bf21676c4c0af59060200160405180910390a46101c160008989898987875b7f000000000000000000000000000000000000000000000000000000000000000067ffffffffffffffff168667ffffffffffffffff1614610351576040517f08c379a000000000000000000000000000000000000000000000000000000000815260206004820152601e60248201527f536f7572636520636861696e20494420646f6573206e6f74206d61746368000060448201526064015b60405180910390fd5b7f000000000000000000000000000000000000000000000000000000000000000084146103da576040517f08c379a000000000000000000000000000000000000000000000000000000000815260206004820152601460248201527f496e76616c696420717565727920736368656d610000000000000000000000006044820152606401610348565b50505050505050565b60006040518060c001604052808686600081811061040357610403611185565b9050602002013560001c81526020018686600181811061042557610425611185565b9050602002013560001c73ffffffffffffffffffffffffffffffffffffffff1681526020018686600281811061045d5761045d611185565b9050602002013560001c73ffffffffffffffffffffffffffffffffffffffff1681526020018686600381811061049557610495611185565b9050602002013560001c8152602001868660048181106104b7576104b7611185565b9050602002013560001c8152602001868660058181106104d9576104d9611185565b9050602002013560001c8152509050600060405180602001604052808787600681811061050857610508611185565b9050602002013560001c8152509050600060405180604001604052808888600781811061053757610537611185565b9050602002013560001c81526020018888600881811061055957610559611185565b9050602002013560001c8152509050600060405180606001604052808481526020018381526020018989600981811061059457610594611185565b9050602002013560001c81525090506000602067ffffffffffffffff8111156105bf576105bf6111b4565b6040519080825280601f01601f1916602001820160405280156105e9576020820181803683370190505b50905060005b6020811015610670578989600e81811061060b5761060b611185565b90506020020135816020811061062357610623611185565b1a60f81b82828151811061063957610639611185565b60200101907effffffffffffffffffffffffffffffffffffffffffffffffffffffffffffff1916908160001a9053506001016105ef565b5060408051602080825281830190925260009160208201818036833701905050905060005b6020811015610716578a8a600f8181106106b1576106b1611185565b9050602002013581602081106106c9576106c9611185565b1a60f81b8282815181106106df576106df611185565b60200101907effffffffffffffffffffffffffffffffffffffffffffffffffffffffffffff1916908160001a905350600101610695565b5060008054604080517fd28dc108000000000000000000000000000000000000000000000000000000008152895160048201526020808b015173ffffffffffffffffffffffffffffffffffffffff90811660248401528b8401518116604484015260608c0151606484015260808c0151608484015260a08c015160a484015288515160c484015281890151805160e4850152909101516101048301529187015161012482015291169063d28dc1089061014401602060405180830381865afa1580156107e6573d6000803e3d6000fd5b505050506040513d601f19601f8201168201806040525081019061080a91906111e3565b9050866020015173ffffffffffffffffffffffffffffffffffffffff166108318285610db4565b73ffffffffffffffffffffffffffffffffffffffff16146108ae576040517f08c379a000000000000000000000000000000000000000000000000000000000815260206004820152601660248201527f496e76616c69642075736572207369676e6174757265000000000000000000006044820152606401610348565b604087015173ffffffffffffffffffffffffffffffffffffffff166108db6108d5856111fc565b84610db4565b73ffffffffffffffffffffffffffffffffffffffff1614610958576040517f08c379a000000000000000000000000000000000000000000000000000000000815260206004820152601b60248201527f496e76616c696420707265636f6e666572207369676e617475726500000000006044820152606401610348565b6000805473ffffffffffffffffffffffffffffffffffffffff1663529c76b5610980856111fc565b6040518263ffffffff1660e01b815260040161099e91815260200190565b602060405180830381865afa1580156109bb573d6000803e3d6000fd5b505050506040513d601f19601f820116820180604052508101906109df9190611241565b905060038160038111156109f5576109f5611269565b03610a82576040517f08c379a000000000000000000000000000000000000000000000000000000000815260206004820152602960248201527f507265636f6e66526571756573742068617320616c7265616479206265656e2060448201527f636f6c6c656374656400000000000000000000000000000000000000000000006064820152608401610348565b6000816003811115610a9657610a96611269565b03610b34578460400151431015610b2f576040517f08c379a000000000000000000000000000000000000000000000000000000000815260206004820152603660248201527f507265636f6e665265717565737420686173206e6f742072656163686564207460448201527f686520626c6f636b2072657175657374656420796574000000000000000000006064820152608401610348565b610da2565b6001816003811115610b4857610b48611269565b03610c0557600054604089015173ffffffffffffffffffffffffffffffffffffffff90911690634ab8980b90610b7d866111fc565b6040517fffffffff0000000000000000000000000000000000000000000000000000000060e085901b16815273ffffffffffffffffffffffffffffffffffffffff90921660048301526024820152604401600060405180830381600087803b158015610be857600080fd5b505af1158015610bfc573d6000803e3d6000fd5b50505050610da2565b6002816003811115610c1957610c19611269565b03610da2578560200151600003610c5a57600054604089015173ffffffffffffffffffffffffffffffffffffffff90911690634ab8980b90610b7d866111fc565b60008c8c6010818110610c6f57610c6f611185565b9050602002013560001c905060008d8d6011818110610c9057610c90611185565b6000546020909102929092013592505073ffffffffffffffffffffffffffffffffffffffff8381169116148015610ce657507f4fbab3620000000000000000000000000000000000000000000000000000000081145b15610d9f5760005460408b015173ffffffffffffffffffffffffffffffffffffffff90911690634ab8980b90610d1b886111fc565b6040517fffffffff0000000000000000000000000000000000000000000000000000000060e085901b16815273ffffffffffffffffffffffffffffffffffffffff90921660048301526024820152604401600060405180830381600087803b158015610d8657600080fd5b505af1158015610d9a573d6000803e3d6000fd5b505050505b50505b50505050505050505050505050505050565b600080600080610dc48686610dde565b925092509250610dd48282610e2b565b5090949350505050565b60008060008351604103610e185760208401516040850151606086015160001a610e0a88828585610f33565b955095509550505050610e24565b50508151600091506002905b9250925092565b6000826003811115610e3f57610e3f611269565b03610e48575050565b6001826003811115610e5c57610e5c611269565b03610e93576040517ff645eedf00000000000000000000000000000000000000000000000000000000815260040160405180910390fd5b6002826003811115610ea757610ea7611269565b03610ee1576040517ffce698f700000000000000000000000000000000000000000000000000000000815260048101829052602401610348565b6003826003811115610ef557610ef5611269565b03610f2f576040517fd78bce0c00000000000000000000000000000000000000000000000000000000815260048101829052602401610348565b5050565b600080807f7fffffffffffffffffffffffffffffff5d576e7357a4501ddfe92f46681b20a0841115610f6e5750600091506003905082611023565b604080516000808252602082018084528a905260ff891692820192909252606081018790526080810186905260019060a0016020604051602081039080840390855afa158015610fc2573d6000803e3d6000fd5b50506040517fffffffffffffffffffffffffffffffffffffffffffffffffffffffffffffffe0015191505073ffffffffffffffffffffffffffffffffffffffff811661101957506000925060019150829050611023565b9250600091508190505b9450945094915050565b60008083601f84011261103f57600080fd5b50813567ffffffffffffffff81111561105757600080fd5b6020830191508360208260051b850101111561107257600080fd5b9250929050565b60008083601f84011261108b57600080fd5b50813567ffffffffffffffff8111156110a357600080fd5b60208301915083602082850101111561107257600080fd5b60008060008060008060008060c0898b0312156110d757600080fd5b883567ffffffffffffffff80821682146110f057600080fd5b90985060208a01359073ffffffffffffffffffffffffffffffffffffffff8216821461111b57600080fd5b90975060408a0135965060608a0135955060808a0135908082111561113f57600080fd5b61114b8c838d0161102d565b909650945060a08b013591508082111561116457600080fd5b506111718b828c01611079565b999c989b5096995094979396929594505050565b7f4e487b7100000000000000000000000000000000000000000000000000000000600052603260045260246000fd5b7f4e487b7100000000000000000000000000000000000000000000000000000000600052604160045260246000fd5b6000602082840312156111f557600080fd5b5051919050565b8051602080830151919081101561123b577fffffffffffffffffffffffffffffffffffffffffffffffffffffffffffffffff8160200360031b1b821691505b50919050565b60006020828403121561125357600080fd5b81516004811061126257600080fd5b9392505050565b7f4e487b7100000000000000000000000000000000000000000000000000000000600052602160045260246000fdfea164736f6c6343000819000a",
        "linkReferences": {}
    },
    "methodIdentifiers": {
        "axiomV2Callback(uint64,address,bytes32,uint256,bytes32[],bytes)": "dc5cd53c",
        "axiomV2OffchainCallback(uint64,address,bytes32,uint256,bytes32[],bytes)": "8193399c",
        "axiomV2QueryAddress()": "2a75d3be",
        "lubanCore()": "0f308979"
    },
    "id": 50
}